:10000000A429FF3FFF3FFF3FFF00030E8301B20023
:100010000408B1000A08B3008A0171088316A6001B
:100020007008A50000300B190130F10071080319A8
:1000300020280B114C30831281008B16FF30A10059
:100040000313831283162608F1002508F00083129B
:1000500033088A0031088400320E8300FF0E7F0EC1
:1000600009000313831296169030970083168716A3
:100070000716003083128C1A0130F1007108013A22
:100080000319392808000030031383129618013031
:10009000F1007108003A031D4F2800004328831621
:1000A000210883129500080003138312F801F90157
:1000B0001030FC00710DF80DF90D7408F802750888
:1000C000031C750FF90203186C287408F8077508EB
:1000D0000318750FF9070310F00DF10DFC0B5A28EA
:1000E0000800213003138312FA00FA0B7528000070
:1000F0000800031383128501C0309F009901173057
:10010000831691002F3085002F3087008312070857
:10011000A2000C30A205A20CA213A20CA21322086A
:10012000003A031D96281430A300AB282208013A98
:10013000031D9D280A30A300AB282208023A031DA4
:10014000A4280230A300AB282208033A031DAB28E1
:100150000130A300AB281D30930016153120073065
:10016000831681004C30831281008B160B118B1784
:10017000A101A401080003138312EE016D0884009D
:100180000008EF006F08003A0319D3286F088316A0
:10019000A1004320EE0A6E086D07F000700884008D
:1001A0000008EF00C2280800013003138316A000E6
:1001B00083126E08003C031DDF286D08093C0318FC
:1001C000E3288316A00A0313831683126E08003CEB
:1001D000031DEC286D08633C0318F0288316A00A61
:1001E0000313831683126E08033C031DF9286D0860
:1001F000E73C0318FD288316A00A03138316831215
:100200006E08273C031D06296D080F3C03180A29B8
:100210008316A00A0313831683126F08840020300C
:100220008000840A8000840A8000840A8000840A96
:100230008000840A8001840383162008003C031890
:1002400041290A30F400F50183126D08F0006E08B0
:10025000F10054207808F0007908F1003030700780
:10026000800084030A30F400F5016D08F0006E0888
:10027000F10054207008ED007108EE008316A00311
:100280001C2908004030031383129F05F0308316A9
:100290009F0483129F176D08F000F00D7010F00D91
:1002A000701070089F041F1471209F1400309F1855
:1002B0000130F2007208013A031D6029000056293E
:1002C0001E08F200F3017208F300F2017208EE005A
:1002D0007308EF0083161E0872048312EE00730881
:1002E000EF000030EF041F106E08F0006F08F100FF
:1002F000080003138312FB01FA01F9018030F800B2
:10030000F10CF00C031C8D297408F907750803180B
:10031000750FFA070318FB0A0310F01F95297408DC
:10032000FA0775080318750FFB07FB0CFA0CF90C9C
:10033000F80C031C80297B08F3007A08F200790886
:10034000F1007808F000080079200330FC00FF304D
:10035000FB00FF30FA00FC0BAE29B529FB0BB129DD
:10036000B429FA0BB129AE29AB295930FB00FF3073
:10037000FA00FB0BBC29BF29FA0BBC29B929DB30D9
:10038000FA00FA0BC12900000D308316A1004320AA
:100390000A308316A10043205430B4006830B50001
:1003A0007230B6006530B7006530B8002030B90053
:1003B0004330BA006830BB006130BC006E30BD0015
:1003C0006E30BE006530BF006C30C0007330C100BD
:1003D0002030C2004130C3006330C4007130C5001A
:1003E0007530C6006930C7007330C8006930C90075
:1003F0007430CA006930CB006F30CC006E30CD0055
:100400002030CE005330CF007930D0007330D1008F
:100410007430D2006530D3006D30D4002030D50068
:100420002D30D6002030D7004730D8002E30D900EC
:100430004330DA006130DB007230DC007230DD0006
:100440006530DE007230DF006130E0002030E10016
:100450003030E2003330E3003130E4003030E5008A
:100460003030E6003730E7002030E8000D30E9009A
:100470000A30EA00EB013430ED00BB202308F00025
:10048000F1010A30F400F50179217008A500710826
:10049000A6007008ED007108EE002B30EF00D420AC
:1004A00053308312B4006130B5006D30B600703047
:1004B000B7006C30B8006530B9002030BA00503059
:1004C000BB006530BC007230BD006930BE006F30CB
:1004D000BF006430C0002030C1005B30C2006D300E
:1004E000C3007330C4005D30C5002030C6003D300D
:1004F000C7002030C800C9013430ED00BB202B30CC
:10050000ED00BB200D308316A10043200A30831676
:10051000A10043201830FC00FF30FB00FF30FA0040
:10052000FC0B932A9A2AFB0B962A992AFA0B962AF5
:10053000932A902A7F30FB00FF30FA00FB0BA12AA0
:10054000A42AFA0BA12A9E2A9A30FA00FA0BA62AAC
:100550000130FA00FA0BAA2A000021080319B22A76
:10056000A101A40A24082306031DFB2AA401ED010E
:1005700042217008A5007108A6000230ED0042215A
:100580007008A7007108A8000430ED00422170082F
:10059000A9007108AA00A2012208023C031CF32A48
:1005A0002530EC000130F4002208F0007408031933
:1005B000DD2AF00D7010FF3FD72A6C08F007700895
:1005C00084000008ED00840A0008EE002B30EF00E4
:1005D000D4202B308312ED00BB202208023A0319ED
:1005E000F32AA20ACC2A0D308316A10043200A3038
:1005F0008316A1004320AD2AFC2AFF3FFF3FFF3FA7
:02400E00F23F7F
:00000001FF
